:020000040000FA
:100000000C9462000C948A000C948A000C948A0070
:100010000C948A000C948A000C948A000C948A0038
:100020000C948A000C948A000C948A000C948A0028
:100030000C948A000C948A000C948A000C948A0018
:100040000C9431050C948A000C94A1050C947B054A
:100050000C948A000C948A000C948A000C948A00F8
:100060000C948A000C948A000000000024002700F1
:100070002A0000000000250028002B0000000000DE
:1000800023002600290004040404040404040202DA
:100090000202020203030303030301020408102007
:1000A0004080010204081020010204081020000012
:1000B0000008000201000003040700000000000027
:1000C0000000D30511241FBECFEFD8E0DEBFCDBFA7
:1000D00012E0A0E0B1E0EEEDF7E102C005900D9274
:1000E000A430B107D9F723E0A4E0B2E001C01D922B
:1000F000A034B207E1F710E0C2E6D0E004C02197D7
:10010000FE010E94D80BC136D107C9F70E948B06A9
:100110000C94ED0B0C94000096E0899FD001112403
:10012000AF52BD4F90967C936E935F9791E09196FE
:100130009C939197E0913E03F0913F0390913D0392
:10014000992339F0309751F0811108C08091ED0268
:100150000994309719F05C968C91FACF0895CF925C
:10016000DF92EF92FF920F931F9396E0899FF00129
:100170001124EF52FD4F11A2278D30A121303105FE
:1001800051F178F02230310509F451C023303105A6
:1001900009F452C01F910F91FF90EF90DF90CF9024
:1001A00008956623B9F361E070E00E948C002FB7D8
:1001B000F8948091180290911902A0911A02B091BE
:1001C0001B022FBF8093290390932A03A0932B0334
:1001D000B0932C03DFCF9FB7F894C0901802D09053
:1001E0001902E0901A02F0901B029FBF00912903B0
:1001F00010912A0320912B0330912C03C01AD10AAD
:10020000E20AF30A00913B0310913C0330E020E046
:100210000C151D052E053F0550F462E070E01F919E
:100220000F91FF90EF90DF90CF900C948C006111B4
:10023000B1CF63E070E0F3CF70E060E0F0CFFC019D
:10024000538D448D252F30E0842F90E0821B930B3B
:10025000541710F0CF96089501970895FC01918DE1
:10026000828D981761F0A28DAE0FBF2FB11D5D96E4
:100270008C91928D9F5F9F73928F90E008958FEF86
:100280009FEF0895FC01918D828D981731F0828D3A
:10029000E80FF11D858D90E008958FEF9FEF089591
:1002A000FC01918D228D892F90E0805C9F4F821BF5
:1002B00091098F7399270895FC01A48DA80FB92F78
:1002C000B11DA35ABF4F2C91848D90E001968F737E
:1002D0009927848FA689B7892C93A089B1898C919D
:1002E000837080648C93938D848D981306C00288EC
:1002F000F389E02D80818F7D80830895EF92FF92B6
:100300000F931F93CF93DF93EC0181E0888F9B8D38
:100310008C8D98131AC0E889F989808185FF15C0F2
:100320009FB7F894EE89FF896083E889F989808115
:100330008370806480839FBF81E090E0DF91CF91E4
:100340001F910F91FF90EF900895F62E0B8D10E006
:100350000F5F1F4F0F731127E02E8C8D8E110CC075
:100360000FB607FCFACFE889F989808185FFF5CFC0
:10037000CE010E945C01F1CFEB8DEC0FFD2FF11D42
:10038000E35AFF4FF0829FB7F8940B8FEA89FB89FD
:1003900080818062CFCFCF93DF93EC01888D88235B
:1003A000B9F0AA89BB89E889F9898C9185FD03C0D8
:1003B000808186FD0DC00FB607FCF7CF8C9185FFBD
:1003C000F2CF808185FFEDCFCE010E945C01E9CFA5
:1003D000DF91CF9108958CE192E00E94500121E0DD
:1003E000892B09F420E0822F089580E090E0892B8A
:1003F00029F00E94EB0181110C94000008958330D4
:1004000081F028F4813099F08230A9F00895873086
:10041000A9F08830C9F08430B1F4809180008F7DDC
:1004200003C0809180008F7780938000089584B509
:100430008F7784BD089584B58F7DFBCF8091B00008
:100440008F778093B00008958091B0008F7DF9CFB1
:10045000CF93DF93282F30E0F901E255FF4F8491CD
:10046000F901E656FF4FD491F901EA57FF4FC491C5
:10047000CC23A1F081110E94FF01EC2FF0E0EE0FE0
:10048000FF1FE458FF4FA591B491EC91ED2381E05B
:1004900090E009F480E0DF91CF91089580E090E052
:1004A000FACF1F93CF93DF93282F30E0F901E25565
:1004B000FF4F8491F901E656FF4FD491F901EA57B5
:1004C000FF4FC491CC23A9F0162F81110E94FF0188
:1004D000EC2FF0E0EE0FFF1FEE58FF4FA591B49107
:1004E0008FB7F894EC91111108C0D095DE23DC93FE
:1004F0008FBFDF91CF911F910895DE2BF8CFCF935F
:10050000DF9390E0FC01E656FF4F24918A579F4FFE
:10051000FC0184918823C9F090E0880F991FFC01A9
:10052000E859FF4FA591B491FC01EE58FF4FC591DA
:10053000D49161110DC09FB7F8948C9120958223BE
:100540008C938881282328839FBFDF91CF910895C2
:10055000623051F49FB7F8943C91822F80958323A9
:100560008C93E8812E2BEFCF8FB7F894EC912E2B44
:100570002C938FBFEACF3FB7F894809114029091EB
:100580001502A0911602B091170226B5A89B05C0CE
:100590002F3F19F00196A11DB11D3FBFBA2FA92F02
:1005A000982F8827BC01CD01620F711D811D911DFF
:1005B00042E0660F771F881F991F4A95D1F708956B
:1005C0008F929F92AF92BF92CF92DF92EF92FF9263
:1005D0004B015C010E94BB026B017C010E94BB02CB
:1005E0006C197D098E099F09683E7340810591054C
:1005F000A8F321E0821A9108A108B10888EEC80E7C
:1006000083E0D81EE11CF11C81149104A104B10403
:1006100029F7FF90EF90DF90CF90BF90AF909F9021
:100620008F900895862F642F0C947F02862F642F5D
:100630000C945102862F0C942802AF92BF92CF9255
:10064000DF92EF92FF920F931F93CF93DF936C0192
:100650007B018B01040F151FEB015E01AE18BF0873
:10066000C017D10759F06991D601ED91FC91019025
:10067000F081E02DC6010995892B79F7C501DF913D
:10068000CF911F910F91FF90EF90DF90CF90BF908F
:10069000AF900895089590E080E00895CF93DF93A0
:1006A000EC0160E08E810E94510261E08E810E9427
:1006B000510260E08E810E9451028BE891E0019727
:1006C000F1F7DF91CF910895CF92DF92EF92FF92F1
:1006D0000F931F93CF93DF936C017C0187E0E80EAB
:1006E000F11CD0E0C0E0062F10E0B8010C2E02C0D3
:1006F000759567950A94E2F76170F70181917F0122
:100700000E9451022196C430D10579F7C601DF91CC
:10071000CF911F910F91FF90EF90DF90CF900C94AD
:100720004E03CF92DF92EF92FF920F931F93CF93DE
:10073000DF93EC01F62E642F8C810E9451028D8193
:100740008F3F19F060E00E9451020F2D10E08F855D
:1007500084FF25C06E0187E0C80ED11CF12CE12C6E
:10076000B8010E2C02C0759567950A94E2F7617086
:10077000F60181916F010E945102FFEFEF1AFF0A0B
:1007800088E0E816F10461F7CE01DF91CF911F9167
:100790000F91FF90EF90DF90CF900C944E03B80133
:1007A00084E0759567958A95E1F7CE010E94640310
:1007B0006F2DCE01DF91CF911F910F91FF90EF90A0
:1007C000DF90CF900C94640340E0682F89EB92E0B7
:1007D0000C94910381E00E94E4038BE39FE1019775
:1007E000F1F70895CF93DF93823029F49091C802F6
:1007F00098609093C8028093CC021092CD0280E45E
:100800008093CE0280E18093CF0280E58093D00276
:1008100061E08091BD020E947F028091BE028F3F05
:1008200019F061E00E947F0261E08091BF020E94A6
:100830007F02C9EBD2E09E01295B32408091C80261
:1008400084FD0BC084E090E021962817390744F41A
:1008500061E08E810E947F02EECF88E090E0F4CFCD
:100860008BE39DE00197F1F760E08091BD020E946B
:10087000510260E08091BF020E9451028091BE024D
:100880008F3F19F060E00E9451028091C80284FD00
:1008900034C063E089EB92E00E946403CBE4D6E4C9
:1008A000CE010197F1F763E089EB92E00E946403C7
:1008B0002197F1F763E089EB92E00E94640383E5FE
:1008C00092E00197F1F762E089EB92E00E94640305
:1008D0008091C80280620E94E40384E08093C90290
:1008E0008CE00E94E4030E94EA0382E08093CA0243
:1008F00086E0DF91CF910C94E40380620E94E403D0
:100900008BE496E40197F1F78091C80280620E941F
:10091000E40383E592E00197F1F78091C8028062D9
:100920000E94E403D5CF41E00E94910381E090E072
:100930000895FB0101900020E9F73197AF01461BB4
:10094000570BDC01ED91FC910280F381E02D0994BD
:10095000CF93DF93BC018CE192E00E949904EC01FB
:1009600060E471E08CE192E00E9499048C0F9D1F7D
:10097000DF91CF910895CF92DF92EF92FF920F9384
:100980001F93CF93DF93CDB7DEB7A1970FB6F8943F
:10099000DEBF0FBECDBF6B017C01F7FE3EC041E064
:1009A0006DE289EB92E00E94910322273327A9018F
:1009B0002C193D094E095F0919A28E010F5D1F4FC9
:1009C0009AE0C92ED12CE12CF12CCA01B901A70162
:1009D00096010E948C0B605DF80162938F012115D6
:1009E00031054105510589F790E080E0309729F005
:1009F000BF0189EB92E00E9499040196A1960FB67F
:100A0000F894DEBF0FBECDBFDF91CF911F910F9144
:100A1000FF90EF90DF90CF900895AC019B0119A259
:100A20008E010F5D1F4F8AE0C82ED12CE12CF12CD6
:100A3000CA01B901A70196010E948C0B605DF80103
:100A400062938F01211531054105510589F790E029
:100A500080E0309799F2BF0189EB92E00E949904FF
:100A6000CDCF1F920F920FB60F9211242F933F9369
:100A70008F939F93AF93BF93809118029091190227
:100A8000A0911A02B0911B023091130223E0230FB0
:100A90002D3758F50196A11DB11D209313028093A7
:100AA000180290931902A0931A02B0931B0280912E
:100AB000140290911502A0911602B09117020196AE
:100AC000A11DB11D8093140290931502A0931602EC
:100AD000B0931702BF91AF919F918F913F912F914A
:100AE0000F900FBE0F901F90189526E8230F0296C7
:100AF000A11DB11DD2CF1F920F920FB60F921124DC
:100B00002F933F934F935F936F937F938F939F9315
:100B1000AF93BF93EF93FF938CE192E00E945C014F
:100B2000FF91EF91BF91AF919F918F917F916F91C5
:100B30005F914F913F912F910F900FBE0F901F909B
:100B400018951F920F920FB60F9211242F938F9327
:100B50009F93EF93FF93E0912C02F0912D028081FF
:100B6000E0913202F091330282FD1BC090818091AE
:100B700035028F5F8F7320913602821741F0E0912A
:100B80003502F0E0E45EFD4F958F80933502FF91D2
:100B9000EF919F918F912F910F900FBE0F901F900B
:100BA00018958081F4CF10921F0210921E0288EED9
:100BB00093E0A0E0B0E08093200290932102A09304
:100BC0002202B09323028CE191E090931D02809366
:100BD0001C0285EC90E0909329028093280284EC1B
:100BE00090E090932B0280932A0280EC90E0909307
:100BF0002D0280932C0281EC90E090932F02809341
:100C00002E0282EC90E0909331028093300286ECC9
:100C100090E090933302809332021092350210924A
:100C2000360210923702109238021092D3021092BC
:100C3000D7021092D6021092D8028AE391E09093E4
:100C4000D2028093D102EDEEF2E010821482138280
:100C50001582369683E0E932F807B9F784E091E02F
:100C6000909334038093330380E091E090933603B4
:100C70008093350384E0809337038093380388E0C2
:100C800091E090933203809331038AE090E0909357
:100C90003A038093390384EF91E090933C0380936F
:100CA0003B0310923F0310923E0310922D031092CB
:100CB0002E0310922F031092300310923D031092D6
:100CC000BC021092BB028EE291E09093BA02809334
:100CD000B90288E08093BD028FEF8093BE0289E065
:100CE0008093BF028AE08093C0028BE08093C102B0
:100CF0008CE08093C2028DE08093C3021092C40204
:100D00001092C5021092C6021092C7021092C80239
:100D100081E00C94F203789484B5826084BD84B53C
:100D2000816084BD85B5826085BD85B5816085BDE6
:100D300080916E00816080936E001092810080919E
:100D40008100826080938100809181008160809326
:100D50008100809180008160809380008091B1004B
:100D600084608093B1008091B00081608093B00076
:100D700080917A00846080937A0080917A0082600A
:100D800080937A0080917A00816080937A008091CC
:100D90007A00806880937A001092C10082E00E94FD
:100DA000F20363E471E089EB92E00E949904E09120
:100DB000CC02E23008F059C0E150F0E0E754FD4FBA
:100DC000848980680E94E40362E571E089EB92E027
:100DD0000E94990460ED77E080E090E00E94E002DC
:100DE0000E94EA0365E0462E512C612C712C2224CE
:100DF0002A94322C50E0852E50E0952E81E080938D
:100E00003D038FB7F89440911802509119026091F8
:100E10001A0270911B028FBF80912D0390912E03B7
:100E2000A0912F03B0913003481B590B6A0B7B0B29
:100E30008091390390913A03B0E0A0E084179507C0
:100E4000A607B70708F098C1C0E080913703C8171C
:100E500070F4E0913303F0913403EC0FF11D62E084
:100E600080810E947F02CF5FF0CFE1E0A6CFB12C5E
:100E700080913803B81608F061C00B2D10E0E091A6
:100E80003503F0913603E00FF11F61E080810E948D
:100E90007F02E0913503F0913603E00FF11F60E02F
:100EA00080810E94510281E090E0A0E0B0E00B2C34
:100EB00004C0880F991FAA1FBB1F0A94D2F76C01A8
:100EC0007C01E094F094A12C80913703A816F8F4EB
:100ED000CA2DD0E0E0913303F0913403EC0FFD1FF5
:100EE00080810E9428022496CC0FDD1FCF52DD4F57
:100EF000892B41F4888199818C299D299983888344
:100F0000A394E2CF888199818E219F21F7CFE09130
:100F10003503F0913603E00FF11F61E080810E94FC
:100F200051028091350390913603080F191F60E03C
:100F3000D8018C910E947F02B3949ACF21EDC22EEA
:100F400022E0D22EE6018F8D98A1892B21F41C8EF0
:100F50003E8E2D8E19A22696EDE0F3E0EC17FD07EC
:100F600091F710E096E0B92E80913703181708F03A
:100F700052C000E0E12EF12CEE0CFF1C970127522D
:100F80003D4F790120913803021708F042C0D70184
:100F90006D917C91002E02C0769567950A94E2F7D8
:100FA000129F90011124200F311DE1EDF2E080E04D
:100FB000458D568D2417350709F49CC38F5F3696EF
:100FC0008A30B1F760FF23C0E1EDF2E090E080E00D
:100FD000448D411117C0E0913103F0913203E20FCB
:100FE000F31F6081B89EF001B99EF00D1124EF52FD
:100FF000FD4F648F368F258F10A2178E61E00E94FF
:10100000AF0005C0019636968A30910509F70F5F4B
:10101000B9CF1F5FA9CF80E0F60191A19111892F6F
:10102000F6E0CF0ED11CCC15DD05B1F79FB7F894D3
:10103000409118025091190260911A0270911B029E
:101040009FBF40932D0350932E0360932F03709303
:101050003003882309F490C08091F202882309F4B8
:101060008BC08091F0029091F102019709F084C049
:10107000C091ED02C0931202C11183C0C0900D0255
:10108000D0900E02E0900F02F090100280911102B9
:101090008823C9F080910C028B3209F0E7C280915D
:1010A000080290910902A0910A02B0910B028C0DE6
:1010B0009D1DAE1DBF1D8093040290930502A09359
:1010C0000602B0930702E1E08091CC028111E0E0DA
:1010D000E195F0E0E754FD4F848980680E94E403C5
:1010E000C701B6010E94BB0441E060910C0289EB8C
:1010F00092E00E9491036091080270910902809130
:101100000A0290910B020E94BB0480911102882375
:1011100081F061E072E089EB92E00E9499046091B5
:1011200004027091050280910602909107020E94CC
:10113000BB04E091CC02E23008F0DAC2E150F0E00A
:10114000E754FD4F848980680E94E40360910402A3
:101150007091050280910602909107020E94BB04E3
:101160008114910409F44ACE0E94EB01882309F40A
:101170003ECE0E9400003BCE10923D031092120220
:101180007DCF0E94EA03CA32F1F48FE591E00E941C
:10119000A804109208021092090210920A021092FA
:1011A0000B0210920D0210920E0210920F0210927A
:1011B0001002109204021092050210920602109280
:1011C000070210921102809112028133F1F48DE630
:1011D00091E00E94A8042091040230910502409100
:1011E000060250910702211531054105510509F00C
:1011F000A4C121E030E040E050E0209304023093AD
:101200000502409306025093070280911202843334
:10121000F1F486E791E00E94A80420910402309145
:101220000502409106025091070221153105410542
:10123000510509F093C184E090E0A0E0B0E0809314
:10124000040290930502A0930602B09307028091D6
:1012500012028733F1F48FE791E00E94A8042091F5
:1012600004023091050240910602509107022115B7
:1012700031054105510509F082C127E030E040E029
:1012800050E02093040230930502409306025093ED
:101290000702809112028033E9F488E891E00E940D
:1012A000A804209104023091050240910602509159
:1012B0000702211531054105510561F0AAE0B0E0B2
:1012C0000E94CD0B60930402709305028093060286
:1012D00090930702809112028233F1F481E991E048
:1012E0000E94A80420910402309105024091060258
:1012F00050910702211531054105510509F050C1F2
:1013000082E090E0A0E0B0E08093040290930502B8
:10131000A0930602B0930702809112028533D1F4A4
:101320008AE991E00E94A80420910402309105020C
:1013300040910602509107022115310541055105E2
:1013400009F03FC1409204025092050260920602E9
:1013500070920702809112028833F1F483EA91E0DF
:101360000E94A804209104023091050240910602D7
:1013700050910702211531054105510509F032C18F
:1013800028E030E040E050E0209304023093050272
:101390004093060250930702809112028332B9F4FF
:1013A0008CEA91E00E94A8048091040290910502C9
:1013B000A0910602B091070280930802909309025F
:1013C000A0930A02B0930B0281E0809311028091F6
:1013D00012028333F1F489EB91E00E94A80420917A
:1013E0000402309105024091060250910702211536
:1013F00031054105510509F006C183E090E0A0E008
:10140000B0E08093040290930502A0930602B0938B
:101410000702809112028633F1F482EC91E00E947F
:10142000A8042091040230910502409106025091D7
:101430000702211531054105510509F0F5C026E0E7
:1014400030E040E050E020930402309305024093E6
:10145000060250930702809112028933F1F48BEC5B
:1014600091E00E94A804209104023091050240916D
:10147000060250910702211531054105510509F079
:10148000E4C089E090E0A0E0B0E080930402909393
:101490000502A0930602B0930702809112029FEB0F
:1014A000980F943008F0EACD409104025091050263
:1014B000609106027091070240930D0250930E0254
:1014C00060930F02709310021092040210920502B2
:1014D0001092060210920702813439F484ED91E0F3
:1014E0000E94A8048BE280930C0280911202823445
:1014F00039F48DED91E00E94A8048DE280930C02F6
:1015000080911202833439F489EE91E00E94A8049C
:101510008AE280930C0280911202843439F488EFBD
:1015200091E00E94A8048FE280930C0264E670E0D0
:1015300080E090E00E94E002A1CDAAE0B0E00E942D
:10154000CD0B6F5F7F4F8F4F9F4F6093040270935F
:101550000502809306029093070257CEAAE0B0E0FE
:101560000E94CD0B6C5F7F4F8F4F9F4F60930402A3
:1015700070930502809306029093070268CEAAE05A
:10158000B0E00E94CD0B695F7F4F8F4F9F4F6093FC
:10159000040270930502809306029093070279CEAD
:1015A000AAE0B0E00E94CD0B6E5F7F4F8F4F9F4F40
:1015B00060930402709305028093060290930702E1
:1015C000ABCEAAE0B0E00E94CD0B6B5F7F4F8F4F98
:1015D0009F4F6093040270930502809306029093DC
:1015E0000702B8CEAAE0B0E00E94CD0B685F7F4F43
:1015F0008F4F9F4F60930402709305028093060201
:1016000090930702C9CEAAE0B0E00E94CD0B6D5FB7
:101610007F4F8F4F9F4F609304027093050280931A
:10162000060290930702F5CEAAE0B0E00E94CD0B2F
:101630006A5F7F4F8F4F9F4F609304027093050244
:10164000809306029093070206CFAAE0B0E00E94C2
:10165000CD0B675F7F4F8F4F9F4F60930402709356
:101660000502809306029093070217CF8D3289F40A
:101670008091080290910902A0910A02B0910B0298
:10168000A7019601281B390B4A0B5B0BDA01C90134
:1016900012CD8A32A9F420910802309109024091BA
:1016A0000A0250910B02C701B6010E947C0B6093A5
:1016B000040270930502809306029093070203CD03
:1016C0008F3209F000CD209108023091090240913B
:1016D0000A0250910B02C701B6010E94AE0B209383
:1016E0000402309305024093060250930702EBCCAC
:1016F000E1E025CD617083CCDB018F939F930E9445
:10170000CD0BBF91AF91A29F800D911DA39F900D16
:10171000B29F900D11240895A1E21A2EAA1BBB1BA3
:10172000FD010DC0AA1FBB1FEE1FFF1FA217B307AD
:10173000E407F50720F0A21BB30BE40BF50B661FC3
:10174000771F881F991F1A9469F760957095809587
:1017500090959B01AC01BD01CF010895052E97FB2B
:101760001EF400940E94C50B57FD07D00E948C0BFD
:1017700007FC03D04EF40C94C50B50954095309562
:1017800021953F4F4F4F5F4F0895909580957095ED
:1017900061957F4F8F4F9F4F08950E94DE0BA59F4D
:1017A000900DB49F900DA49F800D911D112408955C
:1017B000EE0FFF1F0590F491E02D0994A29FB00158
:1017C000B39FC001A39F700D811D1124911DB29F75
:1017D000700D811D1124911D0895F894FFCF04050B
:1017E00006070001020337383944343536433132B5
:1017F00033422A302341000000007E011D031F01F7
:10180000CB0150012E0142010000000093041D0392
:101810004B034A0300000000120316031A030D0ACB
:101820000043616C63756C61746F72206279200093
:101830002020204F505449204D4953540042757484
:10184000746F6E2043616E63656C00427574746FD3
:101850006E203100427574746F6E203400427574CE
:10186000746F6E203700427574746F6E20300042C2
:101870007574746F6E203200427574746F6E20350B
:1018800000427574746F6E203800427574746F6E08
:1018900020457175616C00427574746F6E20330061
:1018A000427574746F6E203600427574746F6E20CA
:1018B00039004164646974696F6E005375627472B3
:1018C000616374696F6E004D756C7469706C6963E7
:1018D0006174696F6E004465766573696F6E002090
:0218E0003D00C9
:107000000C9434380C9451380C9451380C945138F9
:107010000C9451380C9451380C9451380C945138CC
:107020000C9451380C9451380C9451380C945138BC
:107030000C9451380C9451380C9451380C945138AC
:107040000C9451380C9451380C9451380C9451389C
:107050000C9451380C9451380C9451380C9451388C
:107060000C9451380C94513811241FBECFEFD8E046
:10707000DEBFCDBF11E0A0E0B1E0E4EEF9E702C071
:1070800005900D92A230B107D9F712E0A2E0B1E06D
:1070900001C01D92AC30B107E1F70E942D390C946C
:1070A000F03C0C940038282F992787FD9095807F1D
:1070B00090709595879595958795959587959595D4
:1070C00087958A30C4F0382F395A822F8F708A30D2
:1070D0007CF0982F995A8091C00085FFFCCF3093A7
:1070E000C6008091C00085FFFCCF9093C600089534
:1070F000982F905DF0CF382F305DE7CF982F80919B
:10710000C00085FFFCCF9093C6000895EF92FF92D8
:107110000F931F93EE24FF2487018091C00087FD09
:1071200017C00894E11CF11C011D111D81E0E81637
:1071300082E1F8068AE7080780E0180770F3E0911B
:107140000301F091040109958091C00087FFE9CF08
:107150008091C6001F910F91FF90EF9008951F93AB
:107160000E948638182F8091C00085FFFCCF1093B5
:10717000C6000E948638982F8091C00085FFFCCF02
:107180009093C600113664F01755913674F490331D
:107190000CF090531295107F892F810F1F91089545
:1071A00010339CF31053913694F397551295107F3A
:1071B000892F810F1F910895282F882351F090E087
:1071C0008091C00087FFFCCF8091C6009F5F92171F
:1071D000B8F308951F93182F0E948638803211F05B
:1071E0001F9108958091C00085FFFCCF84E18093BA
:1071F000C6008091C00085FFFCCF1093C60080912F
:10720000C00085FFFCCF80E18093C6001F910895E8
:107210000E948638803209F008958091C00085FF71
:10722000FCCF84E18093C6008091C00085FFFCCF35
:1072300080E18093C6000895882359F010920902D6
:1072400090E02D9A2D989F5F9817D8F3909309029C
:1072500008951092090283E0F3CF3F924F925F921C
:107260006F927F928F929F92AF92BF92CF92DF9256
:10727000EF92FF920F931F93CF93DF9300005698E6
:107280005E9A1092C50088E08093C40088E18093E4
:10729000C10086E08093C200259A579A5F9A21E048
:1072A00040E050E0CA010197F1F72F5F2131D1F79B
:1072B00080E1809309025F9883E00E941C398091ED
:1072C000C00085FFFCCF83E58093C6008091C0009D
:1072D00085FFFCCF85E48093C6008091C00085FFC8
:1072E000FCCF84E58093C6008091C00085FFFCCF71
:1072F00080E28093C6008091C00085FFFCCF82E4CD
:107300008093C6008091C00085FFFCCF84E5809308
:10731000C6008091C00085FFFCCF80E28093C6004C
:107320008091C00085FFFCCF80E58093C6008091EE
:10733000C00085FFFCCF81E48093C6008091C0002F
:1073400085FFFCCF87E48093C6008091C00085FF55
:10735000FCCF85E48093C6008091C00085FFFCCF00
:107360008DE48093C6008091C00085FFFCCF8FE440
:107370008093C6008091C00085FFFCCF84E4809399
:10738000C6008091C00085FFFCCF85E48093C600D5
:107390008091C00085FFFCCF80E28093C600809181
:1073A000C00085FFFCCF83E38093C6008091C000BE
:1073B00085FFFCCF80E28093C6008091C00085FFEE
:1073C000FCCF82E38093C6008091C00085FFFCCF94
:1073D00080E38093C6008091C00085FFFCCF80E3EE
:1073E0008093C6008091C00085FFFCCF80E380932E
:1073F000C6008091C00085FFFCCF80E28093C6006C
:107400008091C00085FFFCCF81E38093C60080910E
:10741000C00085FFFCCF8DE08093C6008091C00046
:1074200085FFFCCF83E58093C6008091C00085FF77
:10743000FCCF85E48093C6008091C00085FFFCCF1F
:1074400084E58093C6008091C00085FFFCCF80E278
:107450008093C6008091C00085FFFCCF82E48093BA
:10746000C6008091C00085FFFCCF84E58093C600F4
:107470008091C00085FFFCCF80E28093C6008091A0
:10748000C00085FFFCCF82E58093C6008091C000DC
:1074900085FFFCCF8FE48093C6008091C00085FFFC
:1074A000FCCF8CE48093C6008091C00085FFFCCFA8
:1074B00085E48093C6008091C00085FFFCCF80E208
:1074C0008093C6008091C00085FFFCCF80E380934D
:1074D000C6008091C00085FFFCCF80E28093C6008B
:1074E0008091C00085FFFCCF86E68093C600809126
:1074F000C00085FFFCCF80E28093C6008091C00071
:1075000085FFFCCF87E38093C6008091C00085FF94
:10751000FCCF84E68093C6008091C00085FFFCCF3D
:1075200080E38093C6008091C00085FFFCCF80E39C
:107530008093C6008091C00085FFFCCF8DE08093D2
:10754000C60034E1F32E2EE1E22E95E9D92E8FE02C
:10755000C82E00E1B02EAA24A39411E4912EB6E522
:107560008B2EA2E57A2EF0E26F2EE9E45E2E73E513
:10757000472E60E5362E0E948638803359F18133DC
:10758000C9F1803409F472C0813409F486C08234B0
:1075900021F1853409F474C08035E1F08135D1F0F2
:1075A0008235C1F0853509F497C0863509F486C067
:1075B000843609F4A0C0843709F40BC1853709F477
:1075C00075C18637C1F680E00E94EA380E9486388D
:1075D0008033A9F60E940839CECF90E08091C00098
:1075E00087FFFCCF8091C6009F5F9431B9F70E945E
:1075F0000839C1CF0E948638803209F0BCCF809113
:10760000C00085FFFCCFF092C6008091C00085FFCE
:10761000FCCF9092C6008091C00085FFFCCF809285
:10762000C6008091C00085FFFCCF7092C60080919B
:10763000C00085FFFCCF6092C6008091C00085FF2E
:10764000FCCF5092C6008091C00085FFFCCF4092D5
:10765000C6008091C00085FFFCCF3092C6008091AB
:10766000C00085FFFCCFB092C60085CF0E9486384F
:10767000863808F4AFCF0E9486380E9408397BCF45
:1076800090E08091C00087FFFCCF8091C6009F5F93
:107690009530B9F70E9408396ECF0E94863880383D
:1076A00031F1813809F48DC0823809F48EC08839EF
:1076B00009F089CF83E00E94EA385DCF90E08091A5
:1076C000C00087FFFCCF8091C6009F5F9430B9F760
:1076D00080E00E94EA387ACF0E94863880930501C4
:1076E0000E948638809306010E94083944CF82E0C8
:1076F0000E94EA3840CF0E948638809308020E9498
:1077000086388093070280910B028E7F80930B0254
:107710000E948638853429F480910B028160809321
:107720000B028091070290910802892B89F000E0FA
:1077300010E00E948638F801E95FFE4F80830F5FFA
:107740001F4F80910702909108020817190788F3CC
:107750000E948638803209F00ECF80910B0280FFA4
:10776000CFC0A0910702B09108021097E9F0609194
:10777000050170910601E7E0F1E09B01AD014E0FBC
:107780005F1FF999FECF32BD21BD819180BDFA9A6C
:10779000F99A2F5F3F4FE417F50799F76A0F7B1FA0
:1077A00070930601609305018091C00085FFFCCFB6
:1077B000F092C6008091C00085FFFCCFB092C60059
:1077C000DACE81E00E94EA38D6CE8FE00E94EA3815
:1077D000D2CE0E948638809308020E948638809319
:1077E00007020E948638853409F484C080910B0218
:1077F0008E7F80930B028091050190910601880F86
:10780000991F90930601809305010E94863880326B
:1078100009F0B1CE8091C00085FFFCCFF092C60088
:10782000A0910702B09108021097B9F180910B0264
:10783000182F1170082F0270E0910501F0910601D8
:107840009F012F5F3F4FB90140E050E01123B1F499
:10785000002339F494918091C00085FFFCCF909370
:10786000C6004F5F5F4FCB010196F9014A175B07D6
:1078700080F4BC012F5F3F4F112351F3F999FECFE4
:10788000F2BDE1BDF89A90B58091C00085FFFCCFB4
:10789000E6CF70930601609305018091C00085FDDD
:1078A000E2CE8091C00085FFF8CFDDCE0E94863801
:1078B000803209F060CE8091C00085FFFCCFF0924D
:1078C000C6008091C00085FFFCCFE092C600809189
:1078D000C00085FFFCCFD092C6008091C00085FF1C
:1078E000FCCFC092C6008091C00085FFFCCFB09253
:1078F000C60041CE80910B02816080930B0285CF40
:10790000809106018823880F880B8A2180930A02C0
:107910008091050190910601880F991F90930601AF
:10792000809305018091070280FF09C080910702C2
:107930009091080201969093080280930702F894B0
:10794000F999FECF1127E0910501F0910601C7E0FA
:10795000D1E08091070290910802103091F40091DB
:10796000570001700130D9F303E000935700E89508
:107970000091570001700130D9F301E100935700E5
:10798000E895099019900091570001700130D9F3E2
:1079900001E000935700E8951395103498F01127F3
:1079A0000091570001700130D9F305E000935700B2
:1079B000E8950091570001700130D9F301E100937F
:1079C0005700E8953296029709F0C7CF103011F0B2
:1079D0000296E5CF11248091C00085FFE5CEE8CE68
:0679E000F894FFCF8000C7
:00000001FF
